{
  "contractName": "Greetings",
  "abi": [
    {
      "inputs": [],
      "payable": false,
      "stateMutability": "nonpayable",
      "type": "constructor"
    },
    {
      "constant": false,
      "inputs": [
        {
          "internalType": "string",
          "name": "_message",
          "type": "string"
        }
      ],
      "name": "setGreetings",
      "outputs": [],
      "payable": false,
      "stateMutability": "nonpayable",
      "type": "function"
    },
    {
      "constant": true,
      "inputs": [],
      "name": "getGreetings",
      "outputs": [
        {
          "internalType": "string",
          "name": "",
          "type": "string"
        }
      ],
      "payable": false,
      "stateMutability": "view",
      "type": "function"
    }
  ],
  "bytecode": "0x608060405234801561001057600080fd5b5060408051808201909152600b8082526a4920616d2072656164792160a81b602090920191825261004391600091610049565b506100e4565b828054600181600116156101000203166002900490600052602060002090601f016020900481019282601f1061008a57805160ff19168380011785556100b7565b828001600101855582156100b7579182015b828111156100b757825182559160200191906001019061009c565b506100c39291506100c7565b5090565b6100e191905b808211156100c357600081556001016100cd565b90565b6102db806100f36000396000f3fe608060405234801561001057600080fd5b50600436106100365760003560e01c806349da5de41461003b578063ca4c3a41146100e3575b600080fd5b6100e16004803603602081101561005157600080fd5b81019060208101813564010000000081111561006c57600080fd5b82018360208201111561007e57600080fd5b803590602001918460018302840111640100000000831117156100a057600080fd5b91908080601f016020809104026020016040519081016040528093929190818152602001838380828437600092019190915250929550610160945050505050565b005b6100eb610177565b6040805160208082528351818301528351919283929083019185019080838360005b8381101561012557818101518382015260200161010d565b50505050905090810190601f1680156101525780820380516001836020036101000a031916815260200191505b509250505060405180910390f35b805161017390600090602084019061020e565b5050565b60008054604080516020601f60026000196101006001881615020190951694909404938401819004810282018101909252828152606093909290918301828280156102035780601f106101d857610100808354040283529160200191610203565b820191906000526020600020905b8154815290600101906020018083116101e657829003601f168201915b505050505090505b90565b828054600181600116156101000203166002900490600052602060002090601f016020900481019282601f1061024f57805160ff191683800117855561027c565b8280016001018555821561027c579182015b8281111561027c578251825591602001919060010190610261565b5061028892915061028c565b5090565b61020b91905b80821115610288576000815560010161029256fea265627a7a723158202e3b71a7920686d6db66efd3fb5498fe36850654cbb06efdada4bd3f96a4b78f64736f6c63430005100032",
  "source": "pragma solidity >0.4.99 <0.6.0;\r\n\r\ncontract Greetings {\r\n    string message;\r\n\r\n    constructor() public {\r\n        message = \"I am ready!\";\r\n    }\r\n\r\n    function setGreetings(string memory _message) public {\r\n        message = _message;\r\n    }\r\n\r\n    function getGreetings() public view returns (string memory) {\r\n    return message;\r\n    }   \r\n}",
  "sourcePath": "C:/Users/kevin/ChainSkills/Training/GreetingsTruffle/contracts/Greetings.sol",
  "compiler": {
    "name": "solc",
    "version": "0.5.16+commit.9c3226ce.Emscripten.clang"
  },
  "schemaVersion": "3.3.3",
  "updatedAt": "2021-02-09T21:46:40.016Z",
  "networkType": "ethereum",
  "devdoc": {
    "methods": {}
  },
  "userdoc": {
    "methods": {}
  }
}